:020000040000fa
:080000000002040000000000f2
:020000040000fa
:0400080014030000dd
:020000040000fa
:04000c0014030000d9
:020000040000fa
:0400100014030000d5
:020000040000fa
:0400140014030000d1
:020000040000fa
:0400180014030000cd
:020000040000fa
:04001c0014030000c9
:020000040000fa
:0400200014030000c5
:020000040000fa
:0400240014030000c1
:020000040000fa
:0400280014030000bd
:020000040000fa
:04002c0014030000b9
:020000040000fa
:0400300014030000b5
:020000040000fa
:0400340014030000b1
:020000040000fa
:0400380014030000ad
:020000040000fa
:04003c0014030000a9
:020000040000fa
:0400400014030000a5
:020000040000fa
:0400440014030000a1
:020000040000fa
:04004800140300009d
:020000040000fa
:04004c001403000099
:020000040000fa
:040050001403000095
:020000040000fa
:040054001403000091
:020000040000fa
:04005800140300008d
:020000040000fa
:04005c00c8020000d6
:020000040000fa
:040060001403000085
:020000040000fa
:040064001403000081
:020000040000fa
:04006800140300007d
:020000040000fa
:04006c001403000079
:020000040000fa
:040070001403000075
:020000040000fa
:040074001403000071
:020000040000fa
:04007800140300006d
:020000040000fa
:04007c001403000069
:020000040000fa
:040080001403000065
:020000040000fa
:040084001403000061
:020000040000fa
:04008800140300005d
:020000040000fa
:04008c001403000059
:020000040000fa
:040090001403000055
:020000040000fa
:040094001403000051
:020000040000fa
:04009800140300004d
:020000040000fa
:04009c001403000049
:020000040000fa
:0400a0001403000045
:020000040000fa
:0400a4001403000041
:020000040000fa
:0400a800140300003d
:020000040000fa
:0400ac001403000039
:020000040000fa
:0400b0001403000035
:020000040000fa
:0400b4001403000031
:020000040000fa
:0400b800140300002d
:020000040000fa
:0400bc001403000029
:020000040000fa
:0400c0001403000025
:020000040000fa
:0400c4001403000021
:020000040000fa
:0400c800140300001d
:020000040000fa
:0400cc001403000019
:020000040000fa
:0400d0001403000015
:020000040000fa
:0400d4001403000011
:020000040000fa
:0400d800140300000d
:020000040000fa
:0400dc001403000009
:020000040000fa
:0400e0001403000005
:020000040000fa
:0400e4001403000001
:020000040000fa
:0400e80014030000fd
:020000040000fa
:0400ec0014030000f9
:020000040000fa
:0400f00014030000f5
:020000040000fa
:0400f40014030000f1
:020000040000fa
:0400f80014030000ed
:020000040000fa
:0400fc0014030000e9
:020000040000fa
:0401000014030000e4
:020000040000fa
:0401040014030000e0
:020000040000fa
:0401080014030000dc
:020000040000fa
:04010c0014030000d8
:020000040000fa
:0401100014030000d4
:020000040000fa
:0401140014030000d0
:020000040000fa
:0401180014030000cc
:020000040000fa
:04011c0014030000c8
:020000040000fa
:0401200014030000c4
:020000040000fa
:0401240014030000c0
:020000040000fa
:0401280014030000bc
:020000040000fa
:04012c0014030000b8
:020000040000fa
:0401300014030000b4
:020000040000fa
:0401340014030000b0
:020000040000fa
:0401380014030000ac
:020000040000fa
:04013c0014030000a8
:020000040000fa
:0401400014030000a4
:020000040000fa
:0401440014030000a0
:020000040000fa
:04014800140300009c
:020000040000fa
:0402080014030000db
:020000040000fa
:04020c0014030000d7
:020000040000fa
:0402100014030000d3
:020000040000fa
:0402140014030000cf
:020000040000fa
:0402180014030000cb
:020000040000fa
:04021c0014030000c7
:020000040000fa
:0402200014030000c3
:020000040000fa
:0402240014030000bf
:020000040000fa
:0402280014030000bb
:020000040000fa
:04022c0014030000b7
:020000040000fa
:0402300014030000b3
:020000040000fa
:0402340014030000af
:020000040000fa
:0402380014030000ab
:020000040000fa
:04023c0014030000a7
:020000040000fa
:0402400014030000a3
:020000040000fa
:04024400140300009f
:020000040000fa
:04024800140300009b
:020000040000fa
:04024c001403000097
:020000040000fa
:040250001403000093
:020000040000fa
:04025400140300008f
:020000040000fa
:04025800140300008b
:020000040000fa
:04025c00c8020000d4
:020000040000fa
:040260001403000083
:020000040000fa
:04026400140300007f
:020000040000fa
:04026800140300007b
:020000040000fa
:04026c001403000077
:020000040000fa
:040270001403000073
:020000040000fa
:04027400140300006f
:020000040000fa
:04027800140300006b
:020000040000fa
:04027c001403000067
:020000040000fa
:040280001403000063
:020000040000fa
:04028400140300005f
:020000040000fa
:04028800140300005b
:020000040000fa
:04028c001403000057
:020000040000fa
:040290001403000053
:020000040000fa
:04029400140300004f
:020000040000fa
:04029800140300004b
:020000040000fa
:04029c001403000047
:020000040000fa
:0402a0001403000043
:020000040000fa
:0402a400140300003f
:020000040000fa
:0402a800140300003b
:020000040000fa
:0402ac001403000037
:020000040000fa
:0402b0001403000033
:020000040000fa
:0402b400140300002f
:020000040000fa
:0402b800140300002b
:020000040000fa
:0402bc001403000027
:020000040000fa
:0402c0001403000023
:020000040000fa
:0402c400140300001f
:020000040000fa
:0402c800140300001b
:020000040000fa
:0402cc001403000017
:020000040000fa
:0402d0001403000013
:020000040000fa
:0402d400140300000f
:020000040000fa
:0402d800140300000b
:020000040000fa
:0402dc001403000007
:020000040000fa
:0402e0001403000003
:020000040000fa
:0402e40014030000ff
:020000040000fa
:0402e80014030000fb
:020000040000fa
:0402ec0014030000f7
:020000040000fa
:0402f00014030000f3
:020000040000fa
:0402f40014030000ef
:020000040000fa
:0402f80014030000eb
:020000040000fa
:0402fc0014030000e7
:020000040000fa
:0403000014030000e2
:020000040000fa
:0403040014030000de
:020000040000fa
:0403080014030000da
:020000040000fa
:04030c0014030000d6
:020000040000fa
:0403100014030000d2
:020000040000fa
:0403140014030000ce
:020000040000fa
:0403180014030000ca
:020000040000fa
:04031c0014030000c6
:020000040000fa
:0403200014030000c2
:020000040000fa
:0403240014030000be
:020000040000fa
:0403280014030000ba
:020000040000fa
:04032c0014030000b6
:020000040000fa
:0403300014030000b2
:020000040000fa
:0403340014030000ae
:020000040000fa
:0403380014030000aa
:020000040000fa
:04033c0014030000a6
:020000040000fa
:0403400014030000a2
:020000040000fa
:04034400140300009e
:020000040000fa
:04034800140300009a
:020000040000fa
:10040000cfd320000e7f22000e01880000000000e4
:10041000000020000000e000020032000001200087
:100420002002880014000700810007000000e0009f
:1004300003003a0060a720000100200002003700fe
:100440000000200001002000810f70000100320038
:1004500014000700000020000000e000020032004d
:1004600000000200000000006c0702000000000015
:100470000040da000000fe004440a9000000200017
:100480000000e0000300320000002000a00188000e
:100490004440a800000006008a1f78008b1f7800e7
:1004a0000000060091018800800478000000eb0045
:1004b0001a003700e284440032a0b4009905ba0063
:1004c000e284440032a0b4009906ba00e2844400f9
:1004d00032a0b4000006eb00476fde00fd07b2005b
:1004e000636ce10003003a00ebff07000000eb0043
:1004f0000a003700606ce10004003a00005deb0088
:100500008b05e900fdff3e00040037006168e10053
:10051000010032000086eb000b00070019c7ba008b
:100520001905ba000e04e00003003a000a00e000da
:10053000e0ff3a0000000600fe07b2009e018800be
:100540008a047800f5ff3700395dba008b05e900b1
:100550000c003200295dba008b05e900080032006a
:100560000c00e00003003a00e284440032a0b40032
:10057000f5ff370019ddba008b05e900faff3a00f4
:100580008904e800e184440032a0b40000000600c1
:100590003600f800809fbe00829fbe00849fbe0090
:1005a000869fbe003400f80000002000a0018800f3
:1005b0000a00fa0085a0a90000188000000f78004a
:1005c000101880001007980020188000200798005d
:1005d00030188000300798004018800040079800cd
:1005e0001e0078003e0307001e0090005e02070018
:1005f0002e009000a60207003e0090008203070034
:100600004e009000ec0207000080fa003400f90070
:100610004f03be004f02be004f01be004f00be00a0
:100620003600f900004006000040da000000fe003d
:0406300000000500c1
:020000040000fa
:100634000000fa0039030700cf80de005040880034
:100644006140880057020700cf80de0070408800b8
:10065400814088009d020700cf80de009040880022
:10066400a140880077030700cf80de00b0408800f7
:10067400c1408800df020700cf80de00d040880040
:10068400e14088005240800063408000b026200092
:1006940001002000800f5100818f590003003400b5
:1006a4001000200000408800010037000028ef00ff
:1006b40072408000834080005031200001002000ff
:1006c400800f5100818f5900030034001000200076
:1006d40010408800010037000228ef00924080009b
:1006e400a34080005022200001002000800f510010
:1006f400818f59000300340010002000204088003e
:10070400010037000428ef00b2408000c34080009d
:10071400b02b200001002000800f5100818f590070
:10072400030034001000200030408800010037002e
:100734000628ef00d2408000e340800070202000b3
:1007440001002000800f5100818f59000300340004
:100754001000200040408800010037000828ef0006
:100764000080fa00000006000200fa00b0ff070053
:1007740050c5b300004f780000408000e10f5000e6
:100784000f003a0010408000e10f50000c003a00c6
:1007940020408000e10f500009003a003040800002
:1007a400e10f500006003a0040408000e10f500085
:1007b40003003a0000c3b300004f7800a1003700e3
:1007c40000408000e10f50000f003a00104080000c
:1007d4000000e0000c003a0020408000e10f5000cf
:1007e40009003a0030408000e10f500006003a0052
:1007f40040408000e10f500003003a0010c3b300f2
:10080400004f78008f00370000408000e10f500057
:100814000f003a00104080000000e0000c003a0095
:10082400204080000000e00009003a0030408000d1
:10083400e10f500006003a0040408000e10f5000f4
:1008440003003a0020c3b300004f78007d00370056
:10085400004080000000e0000f003a0010408000db
:100864000000e0000c003a00204080000000e0009e
:1008740009003a0030408000e10f500006003a00c1
:1008840040408000e10f500003003a0030c3b30041
:10089400004f78006b00370000408000e10f5000eb
:1008a4000f003a00104080000000e0000c003a0005
:1008b400204080000000e00009003a003040800041
:1008c4000000e00006003a00404080000000e00024
:1008d40003003a0040c3b300004f780059003700ca
:1008e400004080000000e0000f003a00104080004b
:1008f4000000e0000c003a00204080000000e0000e
:1009040009003a00304080000000e00006003a0090
:10091400404080000000e00003003a0050c3b300f0
:10092400004f78004700370000408000e10f50007e
:100934000f003a00104080000000e0000c003a0074
:10094400204080000000e00009003a0030408000b0
:100954000000e00006003a0040408000e10f500033
:1009640003003a0060c3b300004f7800350037003d
:1009740000408000e10f50000f003a00104080005a
:100984000000e0000c003a00204080000000e0007d
:1009940009003a0030408000e10f500006003a00a0
:1009a400404080000000e00003003a0070c3b30040
:1009b400004f78002300370000408000e10f500012
:1009c4000f003a00104080000000e0000c003a00e4
:1009d40020408000e10f500009003a0030408000c0
:1009e4000000e00006003a00404080000000e00003
:1009f40003003a0080c3b300004f780011003700b1
:100a040000408000e10f50000e003a0010408000ca
:100a1400e10f50000b003a00204080000000e0008d
:100a240008003a00304080000000e00005003a0071
:100a3400404080000000e00002003a0090c3b30090
:100a4400004f78001e4078000080fa000000060085
:100a54000200fa00000f7800020037007e3e090011
:100a6400000000001e00780000f0a7000000ea006b
:100a74000000ea004f00de00004078001e0fe9008d
:100a84000004e000f5ff3a000080fa0000000600d0
:100a94000200fa00004f78008a40a9001602a8005c
:100aa40000000000b0108000610060000000e00061
:100ab400fcff3a008a40a900c0072000901088007b
:100ac4000000000050048000640060000000e000aa
:100ad400fcff32008a40a9001222ef00000000004f
:100ae40050048000640060000000e000fcff32005d
:100af4008a40a9001e00fb0090108800000000003e
:100b040050048000640060000000e000fcff32003c
:100b14008a40a9001642a80000000000b01080001e
:100b2400640060000000e000fcff3a000080fa006e
:100b3400000006000000fa0007e2a900d009200026
:100b4400a01088008a40a90017e2a80080022000b3
:100b5400bfff070080c3b300cdff070090c3b300fd
:100b6400cbff070040c1b300c9ff070000c7b300b3
:100b7400c7ff070060c5b300c5ff0700c0c6b300c8
:100b8400c3ff0700800c2000b1ff070080c3b3003f
:100b9400bfff0700c0c0b300bdff070010c0b30013
:100ba400bbff070010002000a9ff07000080fa0027
:100bb400000006000400fa0020479800314798001e
:100bc4003e409000c600dd002e40900000c0400072
:100bd400004f78001e74a0001e407800acff070090
:100be4000080fa00000006000400fa0010079800d4
:100bf4000000eb00000f78001602a80000000000bf
:100c0400b0108000610060000000e000fcff3a00ca
:100c14008a40a900c007200090108800000000004e
:100c240050048000640060000000e000fcff32001b
:100c3400150037008a40a900000c2000901088009d
:100c44000000000050048000640060000000e00028
:100c5400fcff32008a40a9001e0078009e0090002c
:100c640000804000104078000000fb0090108800d5
:100c74000000000050048000640060000000e000f8
:100c8400fcff32001e0fe8001e0078000000e800a0
:100c94009e00900000804000104078000004e000b6
:100ca400e4ff3a008a40a900000420009010880064
:100cb4000000000050048000640060000000e000b8
:100cc400fcff32008a40a9001e0078009e009000bc
:100cd40000804000104078000000fb009010880065
:100ce4000000000050048000640060000000e00088
:100cf400fcff32008a40a9001642a8000000000050
:100d0400b0108000640060000000e000fcff3a00c6
:100d14000080fa00000006000200fa00004f78008c
:100d24008a40a9001602a80000000000b01080004c
:100d3400610060000000e000fcff3a008a40a90066
:100d4400c0072000901088000000000050048000bc
:100d5400640060000000e000fcff32008a40a9004b
:100d6400000420009010880000000000500480005f
:100d7400640060000000e000fcff32008a40a9002b
:100d84001e00fb009010880000000000500480004a
:100d9400640060000000e000fcff32008a40a9000b
:100da4001642a80000000000b0108000640060003b
:100db4000000e000fcff3a000080fa00000006009a
:100dc4000000fa00213a8000f08f2f0000806000bc
:100dd400203a88000080eb00601988000080fa0047
:100de400000006000000fa00c002a800c922a80002
:100df400c942a800c962a800c982a8002c03a9009e
:100e04002d23a9002d43a9002d63a9002d83a9003a
:100e140011198000f0ff2100008060001019880083
:100e240010c0b30024e3b70001198000f0f12f00d3
:100e3400008060000060a000001988002119800073
:100e4400f00f2e00008060000080a00020198800b0
:100e540001198000f0cf2f00008060000019880085
:100e64002043a8001119800030fc2f00008060008e
:100e74004001b300101988002823ef0021e3a800e3
:100e84002203a9002343a80028e3a9003003a800f3
:100e94003123a8003143a8003163a8003183a8009e
:100ea40085a0a90095a0a8000a21ef001221ef0057
:100eb40091088000f0fc2f000080600090088800fa
:100ec400f03c20007008880013e1a8000080fa00bc
:100ed400000006001600fa00b9ff070015ff07001e
:100ee400ed0007000e00070057000700340107005b
:100ef4009f000700bbff07008040eb000040eb00b1
:100f04002cff070018fe0700004f78001e407800f1
:100f140081ff070040062000cdfe0700f6ff3700e2
:100f24000200fa000000eb00000f78000700370011
:100f34001e00780080004000c08320000080400034
:100f44008000eb00010878001e0fe800f007200085
:100f54009e007800808f5000f5ff34000080fa0076
:100f6400000006000200fa00000f7800f040800044
:100f740000014000c1832000810041009e087800e8
:100f84000000e800f0408800f1408000f0072000f5
:100f9400808f5000010034001e28ef000080fa000a
:100fa400000006000200fa002028ef002228ef00cb
:100fb4000000eb00000f78000d0037001e007800e1
:100fc40080004000c08320000080400010007800b2
:100fd4006102b9000041800011418000040040001a
:100fe4008580480000418800114188001e0fe800f8
:100ff400f00720009e007800808f5000efff34003f
:101004000041800011418000e00f5000e08f580043
:1010140002003d00f007b0000180b000490add0085
:101024004701de0002017200c789de000200be0033
:101034000041880011418800004180001141800076
:101044000080fa00000006000200fa000000eb0035
:10105400000f7800070037001e0078008000400071
:10106400c0932000008040008000eb00010878005d
:101074001e0fe800f00720009e007800808f5000cb
:10108400f5ff34000080fa00000006000200fa00b8
:10109400000f78002041800000014000c19320002f
:1010a400810041009e0878000000e800204188008b
:1010b40021418000f0072000808f5000010034009f
:1010c4002428ef000080fa00000006000200fa0065
:1010d4002628ef002828ef000000eb00000f78001e
:1010e4000d0037001e00780080004000c0932000ef
:1010f40000804000100078006102b9003041800097
:10110400414180000400400085804800304188004f
:10111400414188001e0fe800f00720009e0078007f
:10112400808f5000efff3400304180004141800047
:10113400e00f5000e08f580002003d00f007b000bf
:101144000180b000490add004701de00020172009f
:10115400c789de000200be0030418800414188009a
:1011640030418000414180000080fa000000060008
:101174000200fa000000eb00000f780007003700bf
:101184001e00780080004000c0a3200000804000c2
:101194008000eb00010878001e0fe800f007200033
:1011a4009e007800808f5000f5ff34000080fa0024
:1011b400000006000200fa00000f78005041800091
:1011c40000014000c1a32000810041009e08780076
:1011d4000000e8005041880051418000f0072000e1
:1011e400808f5000010034002a28ef000080fa00ac
:1011f400000006000200fa002c28ef002e28ef0061
:101204000000eb00000f78000d0037001e0078008e
:1012140080004000c0a3200000804000100078003f
:101224006102b90060418000714180000400400007
:101234008580480060418800714188001e0fe800e5
:10124400f00720009e007800808f5000efff3400ec
:101254006041800071418000e00f5000e08f580031
:1012640002003d00f007b0000180b000490add0033
:101274004701de0002017200c789de000200be00e1
:1012840060418800714188006041800071418000a4
:101294000080fa00000006000200fa000000eb00e3
:1012a400000f7800070037001e007800800040001f
:1012b400c0b32000008040008000eb0001087800eb
:1012c4001e0fe800f00720009e007800808f500079
:1012d400f5ff34000080fa00000006000200fa0066
:1012e400000f78008041800000014000c1b320005d
:1012f400810041009e0878000000e80080418800d9
:1013040081418000f0072000808f500001003400ec
:101314003028ef000080fa00000006000200fa0006
:101324003228ef003428ef000000eb00000f7800b3
:101334000d0037001e00780080004000c0b320007c
:1013440000804000100078006102b90090418000e4
:10135400a14180000400400085804800904188003d
:10136400a14188001e0fe800f00720009e007800cd
:10137400808f5000efff340090418000a141800035
:10138400e00f5000e08f580002003d00f007b0006d
:101394000180b000490add004701de00020172004d
:1013a400c789de000200be0090418800a141880088
:1013b40090418000a14180000080fa0000000600f6
:1013c4000200fa000000eb00000f7800070037006d
:1013d4001e00780080004000c0c320000080400050
:1013e4008000eb00010878001e0fe800f0072000e1
:1013f4009e007800808f5000f5ff34000080fa00d2
:10140400000006000200fa00000f7800b0418000de
:1014140000014000c1c32000810041009e08780003
:101424000000e800b0418800b1418000f0072000ce
:10143400808f5000010034003628ef000080fa004d
:10144400000006000200fa003828ef003a28ef00f6
:101454000000eb00000f78000d0037001e0078003c
:1014640080004000c0c320000080400010007800cd
:101474006102b900c0418000d141800004004000f5
:1014840085804800c0418800d14188001e0fe800d3
:10149400f00720009e007800808f5000efff34009a
:1014a400c0418000d1418000e00f5000e08f58001f
:1014b40002003d00f007b0000180b000490add00e1
:1014c4004701de0002017200c789de000200be008f
:1014d400c0418800d1418800c0418000d1418000d2
:0814e4000080fa000000060080
:020000040000fa
:1014ec003c08000000010000000000001e08000085
:1014fc0006000000000000003c0900000001000094
:10150c00000000002408000006000000000000009d
:10151c003c0a000000010000000000002a08000046
:10152c0006000000000000003c0b00000001000061
:10153c000000000030080000060000000000000061
:10154c003c0c000000010000000000003608000008
:10155c000600000000000000000800001e00000053
:08156c00000000000000000077
:020000040000fa
:020000040001f9
:0457f8000ff90000a5
:020000040000fa
:020000040001f9
:0457fc007f3f0000eb
:00000001FF
